:100000000C942A000C9434000C9434000C943400AA
:100010000C9434000C9434000C9434000C94340090
:100020000C9434000C9434000C9434000C94340080
:100030000C9434000C9434000C9434000C94340070
:100040000C9434000C9434000C9434000C94340060
:100050000C94340011241FBECFE5D8E0DEBFCDBF25
:100060000E9436000C946F000C94000015BA14BA6C
:1000700084B38C6F84BB90E080E05CE064E08A3005
:10008000A0F465BB45B370E1879F90011124242B38
:1000900025BB2FEF39E648E1215030404040E1F7E1
:1000A00000C000008F5F55BBEACF9A30A0F445B383
:1000B00070E1979F90011124242B25BB2FEF33E291
:1000C00044EF215030404040E1F700C000009F5F06
:1000D00055BB8F5FD4CF85B385BB80E0D0CFF8947C
:0200E000FFCF50
:00000001FF
